:1000000000100020910000008D0000008D00000015
:1000100000000000000000000000000000000000E0
:100020000000000000000000000000008D00000043
:1000300000000000000000008D0000008D000000A6
:100040008D00000019010000A5210000A515000089
:100050008D0000008D0000008D0000008D0000006C
:100060008D0000008D000000890100008D0000005F
:100070008D00000039010000511E00008D000000BD
:100080008D0000008D0000008D000000FEE7FFFFE6
:10009000002370B509480A490A4C1A188A4207D346
:1000A0000021094B094A934206D300F089FBFEE781
:1000B000E55804331560F0E702C3F4E700000020C0
:1000C0006C020020043D0000700200205C0400204F
:1000D0000122034B197E1142FCD080B21885704773
:1000E000000C004210B504002078002800D110BD9B
:1000F0000134FFF7EDFFF7E7064B10B51B7804005E
:10010000002B03D110BD0134FFF7E2FF2078002857
:10011000F9D1F7E794020020054B9A68520505D5FE
:100120000121044A11708022D2009A607047C046B3
:10013000000800402B03002010B50F4CA37BDB060A
:1001400011D50E4A136801331360132B05DD0C49DA
:100150000B6801330B60002313600A4A13680133F4
:10016000042B03DC13601023A37310BD0023136062
:1001700001F0C4F8F7E7C0460018004288020020EA
:10018000900200208C020020054B1A7E520706D5F3
:100190001B8D044ADBB213700122034B1A707047A7
:1001A000000C004229030020950200200023F7B52F
:1001B00001AE0400737030702A2808D1174A13600A
:1001C000164D2B68502B16DD00232B6010E02328E2
:1001D00007D1134B1B782A2B03D10122114B1A7024
:1001E000EEE7200001F0A2FE0028E9D101F002FEB6
:1001F00020242000FEBD80230B4F5B04BB6101F077
:100200001FFE80235B047B612F680548310038188E
:10021000013702F0F0FC2F60EBE7C04674020020CB
:10022000C40200209602002000440041F0B597B0BF
:1002300005AC0700200001F0BFF907A801F004FA9F
:10024000002321001A0007A801F036FA0026050055
:10025000B04207DC33000122210007A801F02CFA8C
:1002600005000136002F3FD0254909A802F0C3FC44
:1002700009A8FFF741FF0421012300226156E3563C
:10028000A25602910321615609A8019102216156EB
:1002900000911C4902F076FC09A8FFF72DFF04200D
:1002A0000123002207A90856CB568A560290032044
:1002B00008560190897809A849B20091124902F0C4
:1002C00061FC09A8FFF718FF104B002E00D1104B5E
:1002D00010492A0009A802F055FC09A8FFF70CFFF5
:1002E0003100280001F008F9002D06DC012300226E
:1002F000210007A801F0E0F90500280017B0F0BDC3
:1003000060380000793800009A3800005538000045
:100310005B380000BB38000073B5050068460C0070
:10032000160001F091F9002321001A00684601F03F
:10033000C3F9002810DC012300222100684601F0E7
:10034000BBF9002808DA0748FFF7D6FE3200210083
:10035000280001F04DFA73BD0348FFF7CDFE3200CF
:100360006946F5E71E3700002B37000070B59AB0DC
:1003700000281BD0294C2A4D2678002E18D1802326
:10038000DB006B612748FFF7B7FE32003100300019
:1003900001F0B6FA01221000110001F0F1FA632316
:1003A0000120E370FFF742FF01F0FEFC1AB070BDC0
:1003B0001D48FFF7A1FEE37862781C4901A802F00E
:1003C000E1FB01A8FFF798FE6378002B0ED1A3781C
:1003D000002B0BD11648FFF78FFE0120FFF726FFF9
:1003E00001F0BCFC8023DB00AB61DFE7012080244F
:1003F000FFF71CFFE400002806DC0E48FFF77CFE38
:1004000001F0D2FC6C61D1E70B48FFF775FE0620C6
:1004100001F042FB01F0A2FCAC61C7E778020020CA
:10042000004400417E36000099360000B0360000DE
:10043000C5360000E63600000437000000B5074B63
:100440008FB01A6806499200920801A802F09AFB40
:1004500001A8FFF747FE0FB000BDC0460CA080000A
:100460004B380000214B802030B51C000222C00018
:1004700098604A34217880251143217019006D025B
:10048000586150315D6008781043087004200C7882
:1004900084430C709D610C78012504430C7080210D
:1004A0000902596019004F310C7894430C700C7894
:1004B00084430C700C78AC430C708021C9015960E6
:1004C00019004E310C7894430C700C7884430C70F6
:1004D0000878A843087080211800490499605830B2
:1004E000047822430270596130BDC0460044004187
:1004F00010B501249AB00F2302222C4901A802F062
:1005000041FB01A8FFF7EEFD294B2A491A7801A803
:1005100002F038FB01A8FFF7E5FD274901A802F02A
:100520006AFB01A8FFF7DEFD244B254901A81C70DA
:1005300002F061FB01A8FFF7D5FDFFF77FFF08225E
:1005400020001100002300F06DFF0822230011009D
:10055000200000F067FF082220001100022300F0B5
:1005600061FF082203231100200000F05BFF9620AA
:10057000400001F0CFFC00230A221800110000F017
:1005800051FF0A2223001100002000F04BFF0A2235
:1005900002231100002000F045FF0A22032311006E
:1005A000002000F03FFF1AB010BDC046CF38000059
:1005B00028030020F63800000439000094020020CF
:1005C0000E3900000022F8B5494B0400C0B21A7081
:1005D00001F0AEFA0121474A4748137804260B433D
:1005E00013700F230178454F99430D3B1943017058
:1005F000802109068C46796041490D781D430D70B4
:100600000D78B5430D706546BD610D7835430D70AD
:100610000D78033E35430D700F2105780D401131E3
:1006200029430170374D38483849002C2CD12E68A9
:100630009E432E600826056AB54305628025ED05B8
:100640007D601578043E9D4315701578B54315708F
:100650001578033EB54315700A889A430A804022F4
:10066000036A93430362200001F032FC200000F093
:10067000CBFD002C01D0FFF73BFF2000FFF776FEFB
:10068000200000F049FCF8BD8026F605BE60177812
:100690001F4317700822076A3A4302621C4F1D4A23
:1006A0007A801D4A2A60C02292026A601B4AAA818F
:1006B0000422AA752A681A432A608022184DD200A3
:1006C0002A604022066A32430262164A7A80164A3B
:1006D0000A8000220A8230220A8300220A820A88C3
:1006E00013430B8010234B7380239B012B60BAE7CD
:1006F0002B0300205E4400413F4400410044004180
:100700005F440041000C0042000400400018004219
:10071000000C00400F4000000400104005C5FFFF22
:1007200000E100E01240000020230000F8B572B69E
:1007300000211B4A13781170DBB262B68B4203D1E1
:10074000184B1B6ADB0329D41748FFF7D5FC0020A0
:10075000FFF738FFFA2706230026144C144D2360B8
:10076000BF0038002E7001F02FFD8023114ADB00FE
:10077000D168194203D10B49096AC90306D4D2686A
:100780001A42EED10C4B1B78002BEAD00423012037
:100790002360FFF717FF0948FFF7AEFCF8BDC0461E
:1007A0002B03002000440041483600003808004078
:1007B0002A03002000080040700200206436000078
:1007C000F0B5A34BB5B01A78A24B0A201A7001F00D
:1007D000A1FB0823A04CA149A2691343A361A04B2C
:1007E0001A6A0A401A6200229E495A6359639E4956
:1007F0000A709E490A70596B02320A435A6380227A
:100800001201D9681142FCD080240222E4005C600D
:10081000974B1A6062B601F09DF901F0E5FCFFF715
:1008200021FE00F097FA934800F038FB0120FFF713
:10083000C9FE002301270793089306930594069B9E
:1008400001339BB20693FFF771FF642001F062FB56
:10085000FFF76CFF72B6884B1A78002A69D0002225
:100860001A70864B1878C0B2FFF7A0FC62B6FFF78B
:100870002FFC00F0B1FC041E04D0FFF797FC200011
:10088000FFF726FC7E4B1B78002B13D07D48FFF72B
:1008900033FC7D4C7D49200002F0A3F900284AD1A9
:1008A000FFF7CCFD64220021774802F062F90022B4
:1008B000734B1A70764B1A78002A13D000227548B1
:1008C0001A70FFF719FC01F06FFA734B059A694C27
:1008D0005A61201D00F070FE7048FFF70DFC2000EB
:1008E00000F08CFA0A21069801F036FD89B2002941
:1008F0001CD100F09BFE040000F08AFE079B05005F
:10090000834202D03800FFF791FC63070FD1089BA8
:10091000A3420CD0574E301D00F04EFE5F48FFF74B
:10092000EBFB300000F06AFA089400E0079D0795A1
:1009300085E762B69DE75A49200002F052F9002887
:100940000AD13800FFF772FC002802DC01F02CFA13
:10095000A8E701F0EDF9A5E75249200002F041F9BE
:1009600000280ED1504D2C78E4B2002C05D1013076
:100970002F70FFF75BFC2C7094E73800FFF756FCF4
:1009800090E74A49200002F02CF9002802D1464B9A
:10099000187087E74649200002F023F9002802D1A9
:1009A000414B1F707EE74349200002F01AF9011EF7
:1009B00003D10F2000F0A0FD74E73F49200002F0B2
:1009C00010F9002803D1344B059A9A616AE73B4934
:1009D000200002F006F9002803D12F4B059A5A6136
:1009E00060E7200002F00FF905286BD120230021D9
:1009F00065780A22200023702171637002F0CAF921
:100A0000352D0DD1C0B200F0ADFF3800FFF70EFC60
:100A10002B491BA802F0EFF81BA8FFF76DFB41E77D
:100A2000362D03D1C0B200F08BFFEEE7372D03D196
:100A3000C0B200F073FFE8E7382D03D1C0B200F078
:100A40004DFFE2E7392DE0D1C0B200F035FFDCE721
:100A5000380400402803002000040040FFFCFFFF92
:100A600000080040540330002B0300202A0300201C
:100A700000E100E078020020950200202903002018
:100A80009602002038380000C40200203A370000E7
:100A90007002002026380000004400413B3800006E
:100AA0003E37000042370000940200204637000025
:100AB0004B37000050370000553700005937000011
:100AC0005D37000000250B2800D081E02023914EE7
:100AD0000922914930002370A57202F09BF8A842C8
:100AE0006FD009228D49300002F094F8A8426BD0F3
:100AF00001F080F92B0003950493049B039A1343A0
:100B000000D1CFE60A220021200002F043F98449F7
:100B1000020003001BA802F035F81BA8FFF7ECFA4F
:100B20008048FFF7E9FA002311AE33707370F37059
:100B30006A466B460FAD1B7C127B28003371B27086
:100B400000F03AFD00F056FD13AC32000990290088
:100B50002000FFF7E1FB2179E078099A00F050FFCF
:100B600022786178A07800F08BFF062000F094FFD7
:100B70006D4EE3786D48337323797373A378F37202
:100B80006378B37223787372EB78F3712B793372D5
:100B9000AB78B3716B78377073712B78F7703371F2
:100BA0006B461B7B73706B461B7CB370FFF7A4FA1C
:100BB000300000F023F90120FFF738FB01F0CEF8F8
:100BC00001E70390032397E705230490039394E739
:100BD000102800D099E025740E250D244D4913A846
:100BE00002F009F808ABE418ED182B000CAA21005C
:100BF00013A801F0BFF9002800DC89E00C992B88CC
:100C000022781BA800914A4901F0BCFF1BA8FFF7FE
:100C100073FA484B0C9A1B6847489B009B089A4202
:100C200071D14648FFF768FA3F4B2278DB78934250
:100C300003D3002A66D15F2B64D90E2308AA9B1820
:100C40001D883F4A6B1E9BB2934255D80DAE3000B3
:100C500000F0B2FC3348FFF74FFA00230FAA1370DD
:100C6000002353702B1C602D00D960239BB293701E
:100C7000ED1A0023D370002311AC31002000137152
:100C8000FFF74AFB2179E078002200F0B9FE2278D4
:100C90006178A07800F0F4FE0620ADB200F0FCFE12
:100CA0003800FFF7C3FA002DD1D1E2781E4B1A733A
:100CB00022795A73A278DA7262789A7222785A721A
:100CC000F278DA7132791A72B2789A7172785A714E
:100CD00032781A710D2308AA9B18134C1B781348FD
:100CE000E3700E239B181B88277063700023A3708A
:100CF000FFF702FA20005CE71248FFF7FDF900F069
:100D0000DBFEE7E71048FFF7F7F901F073F8C9E5F4
:100D10000E48F8E7C5020020803700008A3700003F
:100D200094370000A737000078020020B737000092
:100D3000C53700000CA0800008380000DE37000036
:100D4000E6030000E9370000F9370000173800001B
:100D50007047FFFF0C490D4A8B685B035B0F9B00DC
:100D60009A580B4B1A608B680A499BB20B6053432D
:100D7000094992000B60094B1A60094A094B1A6035
:100D80000E22094B1A60704700400041003B0000F2
:100D9000240400201C040020180400202804002043
:100DA000003A0000200400202C040020044B054AD7
:100DB0004008D8611A801A7DD207FCD57047C0461A
:100DC0000040004102A5FFFF094B70B51D68094BAB
:100DD0001C68094E200033689D4202D8FFF7E6FFE9
:100DE00070BDFFF7E3FF3368E418ED1AF1E7C04682
:100DF0002C0400202004002028040020F8B51F4BFC
:100E000005001E681E4B1F68FFF7DEFF80211D4A8C
:100E1000FB1C50689B0801435160002B00D1F8BDBA
:100E200019491180117DC907FCD51848190084465D
:100E300067463F68581ABF08B84201D2002906D158
:100E4000134B1380137DDB07FCD50B00E5E7FF2771
:100E50002878BC4304430F4F68783C4000020443A9
:100E60000D48AF782040EC783F0480B22406384328
:100E7000044310C604350139DAE7C04620040020D7
:100E80002C0400200040004144A5FFFF2404002062
:100E900004A5FFFFFF00FFFFFFFF00FF034B10B59E
:100EA0001968034B1A6801F05BFE10BD2004002096
:100EB0002C04002072B6024B186862B67047C04618
:100EC0009002002030B50C4D03AC29600B4924780A
:100ED0000A600B4A137054700A220A4B18600A4BBE
:100EE0001A600A4BEB32FF321A600023084A136083
:100EF000084A136030BDC04630040020340400208E
:100F00003804002048040020400400203C04002055
:100F10004C0400204404002007B5002807D0032318
:100F2000034A0093034901330348FFF7CBFF07BD92
:100F3000000000200F000020030000203D4BF0B512
:100F40001B6801241A003C4887B001783B4D01938F
:100F500059188A420ED102244378A4460393384B91
:100F6000012019680023354D039EDCB2A64219D832
:100F700007B0F0BD2600137802279E406E601378FC
:100F8000304E9B191E783E431E7026001378FF19C1
:100F90009E40AE6113782B4E01329B191E783E4362
:100FA0001E70D6E70600CC5C6746A640AE60CC5CFF
:100FB000244EA41926783E4326700600CC5CA64039
:100FC00004009C406E610294E443019E05941E4C13
:100FD0000096009E964217D10600CC5C6746A6405C
:100FE000AE610600CC5CA6406E60CC5C154EA419C8
:100FF00026783E4304272670CC5C124E0133A41998
:101000002678BE432670AFE72E6A0496009E377896
:101010000600BE403700049E3E4207D12768029E6C
:101020003743009E276001360434D1E7059F2668C8
:101030003740F6E730040020380400200044004127
:1010400034040020404400412C030020002270B5ED
:10105000184D04012B19187A0E00DA6003280CD8F9
:1010600001F0EAF8020C1B22012906D12C19217289
:10107000E160FFF71FFF104B186070BDFFF71AFF0C
:101080000D4B1B68C01A0D4B1B68984205D90223F3
:101090002C192372013BE360EFE7002EEDD103230F
:1010A0002C192372023BF6E700232C19237201331B
:1010B000F1E7C04654030020140400203C04002043
:1010C00002000020054903015B185B68934203D0CE
:1010D00001300C28F7D10D387047C046540300206A
:1010E000F7B501202A4B2B4940421A7A002A02D137
:1010F0001A705860DA6010338B42F6D10026264B06
:101100001B78B34237D9002512E0244BB200D758E0
:101110000123EF407443641920001F40FFF7D0FF04
:1011200000280CDB3900C0B2FFF790FF0135EDB2AB
:10113000194B5C78A542E8D30136F6B2DFE7431CD1
:10114000F4D1002FF2D000231149DAB201921A0132
:10115000944652181778002F09D16046104B1B682F
:101160001B5D54604354177201210198DCE7013381
:101170000C2BEAD1DAE7002301211800044A9C185D
:10118000E468002C00D008001033C02BF7D1FEBD5E
:101190005403002014040020380400202C030020F5
:1011A0004804002070B5FFF785FE094D00242B6828
:1011B000C01A084B1B68984207D9FFF7BFFEFFF71C
:1011C0008FFF0400FFF776FE2860200070BDC04648
:1011D0004C04002040040020012310B5084C23607B
:1011E000FFF7E0FF002808D0064BDA68002A04D099
:1011F0001A7A012A01D1187810BD00202060FBE77F
:101200004404002054030020F7B580220224120475
:1012100094462D4B01902D489A6002782C49224328
:10122000027062465A61802292029A600A78294EC0
:1012300022430A70802292025A618022D2039A606D
:10124000254A264F1578254315708025ED035D61ED
:1012500000253560224E3560224E3E80224F3D7083
:10126000224F3E807E80BE80FE80214E3560214E22
:101270003560214E3580019D002D24D16546042620
:101280005D600578A54305700578B54305700125B7
:101290000778AF4307708020800258600878A04329
:1012A00008700878B04308700878A8430870802157
:1012B000C90359601378A34313701378B3431370B1
:1012C0001378AB431370F7BD00440041574400410D
:1012D000514400419C02002056440041AC020020D1
:1012E000A40200200080FFFFAE020020B002002018
:1012F000A8020020A002002098020020404BF0B578
:101300001A88013292B21A801A88D204D20C1A803A
:101310001A8892B2002A05D13A4B1A7001323A4B20
:101320001A6009E0802219881201914234D1012308
:10133000344A1370344A1360344B1A68002A49D176
:1013400080210127324A8902324C1F605161208876
:10135000314D060029680E413E4231D180263604C7
:10136000566101312960102915DD022119608023A1
:101370000026DB039361294A2E60234D13682968F8
:1013800001331360B1421FD01E4B254A1B782E60DB
:101390005B009B5A2380F0BD802219885201914244
:1013A00004D10222174B1A70013AB8E71A88C023F9
:1013B0005B019A42C0D10322124B1A70023AAEE787
:1013C000802636049661CCE7012BE4DDC043116032
:1013D0002080E0E7012A06D100221A6080220C4B0F
:1013E00092029A61D7E7022A06D101321A6080225E
:1013F000074BD2035A61CEE700221A60CBE7C04602
:1014000098020020AE020020A80200209C020020CA
:1014100000440041AC020020A4020020A0020020F1
:10142000B002002010B503242340084C5B00A45CEC
:10143000074A6400125C07482243415C09020A43E0
:1014400005495A520122054B1A6010BD203B00008D
:10145000383B00002C3B0000B0020020A802002016
:10146000F8B5002504002F000A26002C01D1380011
:10147000F8BD2000310000F06FFFC8B2A840310075
:101480000743200000F0E2FE0435FFB2EDB2C4B223
:10149000EBE7F7B50F0064210192060000F0D6FEDD
:1014A000C0B2FFF7DDFF0F25284004000A21601EAF
:1014B0008441300000F0CAFE0A21C0B200F04CFFA7
:1014C000C8B2FFF7CDFF05402B00E4B2234304D19F
:1014D0001D00019B002B00D00A3530000A2100F0CE
:1014E0003BFFC8B2FFF7BCFF3B0002002900200011
:1014F000FFF798FFF7BDFFFF70B5294C0D00A04224
:1015000005DC0024A04229DB84B2BC2826DD64214E
:10151000200000F021FF0022CEB230001100FFF7C2
:10152000B8FF002D17D0002202213000FFF7B1FFD5
:101530006421200000F08AFEC4B2012203212000B1
:10154000FFF7A7FF01221100002D00D1022120008A
:10155000FFF79FFF1BE02A000121E6E7E4B201222A
:1015600000212000FFF795FF012202212000FFF754
:1015700090FF002D0CD00A22012311000020FFF75C
:1015800051FF0A22032311000020FFF74BFF70BD1B
:10159000012220001100FFF77CFF01220321D6E782
:1015A000D34900000123024A1370024A13727047A4
:1015B00070020020001400400C4B0D4A5A809A7AA9
:1015C000D209FCD11A69920E02701A699201120FA7
:1015D00042701A699202D20E82701A69D203D20E38
:1015E000C2701B691B059B0E0371704700140040FD
:1015F0000080FFFF044B054A5A809A7AD209FCD139
:1016000018698006800E7047001400400080FFFFBC
:10161000044B054A5A809A7AD209FCD11869000510
:10162000800E7047001400400080FFFF044B054A05
:101630005A809A7AD209FCD11869C003C00E70474B
:10164000001400400080FFFF0A4B9A69920E02705E
:101650009A699201120F42709A699202D20E8270B8
:101660009A69D203D20EC2709B691B059B0E03714F
:101670007047C046001400400122017803008256E2
:101680001D20890700D01C20022A0AD05B781E206A
:101690000C2B06D81D389840024B1840431E984129
:1016A0001E307047AA1500000323007818404342FB
:1016B00058416E30FF307047F0B58BB00793002370
:1016C000C35608AE02936B461B7A050033700123A4
:1016D0000027022401910692C3560393039B9C4268
:1016E00047DD0220B4232856DB0058430323C719E3
:1016F0003C20EB5602245843C71904202856B42531
:10170000C3190493019B00271B7808AE5BB20393B7
:101710006B461B7BED003370019B5B785BB20593DE
:10172000059B9C4232DD0220019B00241856454354
:101730000320EF193C25185645430420EF190225D4
:101740001856049BC719DF1B029B9D4229DD00250B
:101750000226039B9E422FDDB421601BC900484333
:10176000C0193FD4069B002B31D03C2100F0F8FD7E
:1017700034E0E4B2631E30007370FFF77DFFB423E2
:10178000DB00584301343F1864B2A7E7E4B2631E9C
:1017900030007370FFF770FF684301343F1864B284
:1017A000BEE708AAEDB26B1E10001370FFF77CFFB6
:1017B000013524186DB2C7E708AAF6B2731E1000EF
:1017C0001370FFF771FF01362D1876B2C1E7079B42
:1017D000002BCBD0054A1300904200DC03B2180066
:1017E0000BB0F0BD01235B42F9E7C046FF7F00006C
:1017F000F8B50023160004000F000371C370837056
:1018000012780B789B1803704B7872789B18637072
:101810000123E3560C2B1FDC3B7932799B18237193
:1018200004216156E2783B291BDCFB78F1785B18D8
:101830009B18E3700322A256A578172A16DC200015
:10184000FFF71AFFBB78B2789B185B19A3700223CD
:10185000E35698420FDBF8BD22780C3B0132227030
:10186000D5E701323C39E2702171D9E70135183AE8
:10187000A570E270DEE71B1AA37063785A1C52B29F
:1018800062700C2A04DD22780B3B013222706370F7
:101890002000FFF7F1FEDAE710B53F24054B010009
:1018A0001A692140A2431000084318619A7AD209AC
:1018B000FCD110BD001400403F21064B01401A69C5
:1018C000054889011040084318619A7AD209FCD171
:1018D0007047C046001400403FF0FFFF1F21064B39
:1018E00001401A69054809031040084318619A7AB3
:1018F000D209FCD17047C04600140040FF0FFEFF24
:1019000070B50D0004001000FFF7C6FF2800FFF7B8
:10191000D3FF2000FFF7E2FF70BDFFFF1F21064B42
:1019200001401A69054849041040084318619A7A31
:10193000D209FCD17047C04600140040FFFFC1FF30
:101940000F21064B01401A690548890510400843DC
:1019500018619A7AD209FCD17047C0460014004041
:10196000FFFF3FFC054A810613699801800908437F
:101970001061937ADB09FCD17047C0460014004027
:1019800070B50D001400FFF7C9FF2800FFF7D8FF5E
:101990002000FFF7E7FF70BD10B53F24054B0100A5
:1019A0009A692140A2431000084398619A7AD209AB
:1019B000FCD110BD001400403F21064B01409A6944
:1019C000054889011040084398619A7AD209FCD1F0
:1019D0007047C046001400403FF0FFFF1F21064B38
:1019E00001409A69054809031040084398619A7AB2
:1019F000D209FCD17047C04600140040FF0FFEFF23
:101A000070B50D0004001000FFF7C6FF2800FFF7B7
:101A1000D3FF2000FFF7E2FF70BDFFFF1F21064B41
:101A200001409A69054849041040084398619A7A30
:101A3000D209FCD17047C04600140040FFFFC1FF2F
:101A40000F21064B01409A6905488905104008435B
:101A500098619A7AD209FCD17047C04600140040C0
:101A6000FFFF3FFC054A81069369980180090843FE
:101A70009061937ADB09FCD17047C04600140040A6
:101A800070B50D001400FFF7C9FF2800FFF7D8FF5D
:101A90002000FFF7E7FF70BD10B50724054B0100DC
:101AA0001A7F2140A2431000084318779A7AD2097E
:101AB000FCD110BD001400400721044B1A7F8A435B
:101AC0001A779A7AD209FCD17047C04600140040B8
:101AD0000221044B1A888A431A809A7AD209FCD1CF
:101AE0007047C046001400400222044B19880A4384
:101AF0001A809A7AD209FCD17047C046001400407F
:101B00000122044B19880A431A809A7AD209FCD11F
:101B10007047C046001400400121044B1A888A43D4
:101B20001A809A7AD209FCD17047C046001400404E
:101B3000054A002806D1054B536053785BB2002B51
:101B4000FBDB7047024BF7E7000C0040020311007B
:101B500002051100202310B51C4A91690B439361C3
:101B60001B4A1C4B9A821C4B1C4A9A605A7852B2F0
:101B7000002AFBDB1A4A5A605A7852B2002AFBDB71
:101B8000184A5A805A78D209FCD1FFF7A1FFFFF713
:101B9000B7FF154B15495A880A405A80144A1A80D3
:101BA0009A7AD209FCD10821124A11600122D9790E
:101BB0000A430721DA711A7F8A431A779A7AD2097F
:101BC000FCD1FFF791FFFFF7A7FF10BD0004004015
:101BD000CE06000000080040000C00400204000097
:101BE000020511000442000000140040FFBFFFFF87
:101BF000080A000000E100E00221084B1A888A432D
:101C00001A80DA7BD209FCD101321A80DA7BD20940
:101C1000FCD11A88D207FCD47047C046001C004291
:101C200010B5FFF7E9FF8022034B12055A6100222D
:101C3000024B1A7010BDC04600440041B80200209B
:101C4000F7B580220F002F49D201CA67C0212E4B61
:101C500049005A502D4A060012780193002A01D0FB
:101C6000FFF7DEFF31002A4800F0F0FA294A00238E
:101C700094460425441E644531D8013B0025092BB8
:101C800002D8254A5B009D5A002F38D0FA217800EF
:101C90007043890000F0DAFA020000231F490A604D
:101CA0004B60FFF7A9FF20221D4B19880A431543FB
:101CB0001D80DA7BD209FCD1A4B21C83DA7BD20965
:101CC000FCD110325A7319880E3A0A431A80DA7B13
:101CD000D209FCD18023019ADB011360F7BD040017
:101CE00019005A1CD440A943C9B2013C032902D0AF
:101CF000D2B2062A01D10233DAB21300BBE70120C7
:101D00004042C9E704E100E000E100E0B802002041
:101D100000093D00FFFF00003A3B00005004002096
:101D2000001C004210B5312801D9FFF789FF10BD12
:101D300070B5DC26050000247600AC4200DB70BDE7
:101D4000FA213000FFF77CFF46200134FF3000F01D
:101D5000E1F824B2FFF764FFEFE7FFFFF8B5FA27D9
:101D60000024BF000D4E38003319596800F0F8FA0E
:101D700005000100A059FFF7D5FF280000F090FEF4
:101D8000074A084B00F0D8FB00F056FE083400F07C
:101D9000C1F8FFF745FF382CE4D1F8BD64000020FE
:101DA000CDCCCCCCCCCCF43FF8B5FA270024BF0086
:101DB0000D4E38003319596800F0D2FA05000100C1
:101DC000A059FFF7AFFF280000F06AFE074A084B52
:101DD00000F0B2FB00F030FE083400F09BF8FFF793
:101DE0001FFF402CE4D1F8BD24000020CDCCCCCC8A
:101DF000CCCCF43FF8B5FA270024BF000D4E3800D4
:101E00003319596800F0ACFA05000100A059FFF73A
:101E100089FF280000F044FE074A084B00F08CFBC5
:101E200000F00AFE083400F075F8FFF7F9FE102CF8
:101E3000E4D1F8BD14000020CDCCCCCCCCCCF43F08
:101E400010B5FA210148FFF7FBFE10BD1704000092
:101E5000F8B5144DAB7BDB061BD5134E134C326823
:101E6000736817001F4315D032687368002B02DCBB
:101E70000AD1002A08D03268736801204042C11795
:101E800012184B413260736080231B05E3611023FD
:101E9000AB73F8BDFFF7B0FE80231B056361044BF5
:101EA0001F70F4E7001C0042500400200044004171
:101EB000B8020020054B8022196A002802D1914304
:101EC000196270470A431A62FBE7C04600040040EB
:101ED000802170B50D4A09050D4B00280FD15160C6
:101EE00002211A788A431A701A7849188A431A709C
:101EF0001A7803398A431A70FFF7DCFF70BD022499
:101F000091601D782C431C705161F5E7004400413D
:101F10005B440041044B58430023834200D1704787
:101F2000C0460133F9E7C046520300000100030038
:101F30003F2200209143814205D10922303BDBB290
:101F40009A424041C0B2704730B50400084D0E348B
:101F5000002301785A5D3032914202D001330A2BBE
:101F6000F8D1303303700130A042F1D130BDC0460A
:101F70004E3B0000F0B5050093B00493029103922C
:101F8000FFF7E2FF28000A220C30002100F002FFD8
:101F9000C3B204000193632B53D80027290006A87D
:101FA00000F029FE06AB1F73E3B20593059B9F4229
:101FB0002DDB00232449585C019CDAB2A04203D0F7
:101FC0000133642BF7D11A00029B0AAD1A7006A9DF
:101FD0000EAE280000F00FFE002406A9300000F02D
:101FE0000AFE20230A222100280033726C7200F0BE
:101FF000D1FE039B0A221860292006ABC0182100DD
:1020000000F0C8FE049B1880012013B0F0BD00242E
:102010000AAD012206A9280000F020FE0EAE06AB94
:10202000591C0B2230006C7000F018FE310006A81D
:10203000F47200F0E0FD290006A800F0C5FD0137AC
:10204000B4E701204042E0E7583B0000A522034BE3
:102050001A72DA79D209FCD17047C04600100040EC
:10206000002370B50D00484C2370E379DB09FCD1E7
:10207000464B98424FDC00284DD0FA218002F530C3
:10208000FF30890000F06CF9414B984247DC414B2E
:10209000984248DC404B984249DC404B98424ADC2D
:1020A0003F4B98424BDCFF284DDC7F284FDC3F281C
:1020B00050DC1F2851DC0F2852DC002308220121AC
:1020C000002D50D060790F25014361710B2160789C
:1020D0002B40A84301436170617818010B002B402D
:1020E00003436370042321780B432370E379DB09F6
:1020F000FCD1FA258023AD0055439B00ED18FFF776
:10210000A5FF02232278AD1213432370E379DB0984
:10211000FCD1280070BD80220B23D201CFE78022A2
:102120000A239201CBE7802209235201C7E78022CC
:1021300008231201C3E780220723D200BFE78022D1
:1021400006239200BBE7802205235200B7E7042351
:102150008022B4E703234022B1E702232022AEE726
:1021600001231022ABE7207901430F202171617810
:10217000034081430B430421637023788B43237016
:10218000E379DB09FCD1B4E7001000407F3E00009A
:10219000FF1F0000FF0F0000FF070000FF0300000B
:1021A000FF0100000221064B1A788A431A70DA797F
:1021B000D209FCD101329A71024B1A707047C046A5
:1021C000001000402A03002010B50121FFF748FF4E
:1021D0000423044A11690B431361BFF34F8F30BFCF
:1021E00010BDC04600ED00E00C4B0D4A10B59A60E2
:1021F0000C4A5A605A78D209FCD10B4A0B495A80D2
:102200000422CA67C021C020094B49005A508000EF
:102210001958084C214019501A6010BD000C00409C
:1022200002040000020311000342000004E100E088
:1022300000E100E0FFFF00FF02B4714649084900D9
:10224000095C49008E4402BC7047C0460022430826
:102250008B4274D303098B425FD3030A8B4244D36E
:10226000030B8B4228D3030C8B420DD3FF220902B0
:1022700012BA030C8B4202D31212090265D0030B6F
:102280008B4219D300E0090AC30B8B4201D3CB0365
:10229000C01A5241830B8B4201D38B03C01A5241A7
:1022A000430B8B4201D34B03C01A5241030B8B42A9
:1022B00001D30B03C01A5241C30A8B4201D3CB0294
:1022C000C01A5241830A8B4201D38B02C01A524179
:1022D000430A8B4201D34B02C01A5241030A8B427C
:1022E00001D30B02C01A5241CDD2C3098B4201D394
:1022F000CB01C01A524183098B4201D38B01C01A12
:10230000524143098B4201D34B01C01A5241030988
:102310008B4201D30B01C01A5241C3088B4201D337
:10232000CB00C01A524183088B4201D38B00C01AE4
:10233000524143088B4201D34B00C01A5241411A0B
:1023400000D20146524110467047FFE701B5002018
:1023500000F0F0F802BDC0460029F7D076E77047DC
:1023600003460B437FD4002243088B4274D30309F6
:102370008B425FD3030A8B4244D3030B8B4228D397
:10238000030C8B420DD3FF22090212BA030C8B42BD
:1023900002D31212090265D0030B8B4219D300E05D
:1023A000090AC30B8B4201D3CB03C01A5241830BE2
:1023B0008B4201D38B03C01A5241430B8B4201D392
:1023C0004B03C01A5241030B8B4201D30B03C01ABB
:1023D0005241C30A8B4201D3CB02C01A5241830A35
:1023E0008B4201D38B02C01A5241430A8B4201D364
:1023F0004B02C01A5241030A8B4201D30B02C01A8E
:102400005241CDD2C3098B4201D3CB01C01A5241F4
:1024100083098B4201D38B01C01A524143098B427D
:1024200001D34B01C01A524103098B4201D30B0166
:10243000C01A5241C3088B4201D3CB00C01A52418B
:1024400083088B4201D38B00C01A524143088B4250
:1024500001D34B00C01A5241411A00D201465241E9
:10246000104670475DE0CA0F00D04942031000D308
:102470004042534000229C4603098B422DD3030A5D
:102480008B4212D3FC22890112BA030A8B420CD36D
:10249000890192118B4208D3890192118B4204D396
:1024A00089013AD0921100E08909C3098B4201D316
:1024B000CB01C01A524183098B4201D38B01C01A50
:1024C000524143098B4201D34B01C01A52410309C7
:1024D0008B4201D30B01C01A5241C3088B4201D376
:1024E000CB00C01A524183088B4201D38B00C01A23
:1024F0005241D9D243088B4201D34B00C01A5241FA
:10250000411A00D20146634652415B10104601D386
:102510004042002B00D54942704763465B1000D310
:10252000404201B5002000F005F802BD0029F8D0B6
:1025300016E770477047C046F0B557464546DE4639
:102540004E46E0B50C0398464E00230B87B00700BB
:1025500092469B46760DCD0F002E6BD06D4B9E4262
:1025600035D080245B46420F2404DB0014431C4317
:10257000C3009946684BA3469C4600230027664447
:10258000029343461C035A00DB0F5046240B520DA6
:10259000984600D176E05F4B9A426DD08023410F80
:1025A0001B040B435C49E4008C461C43C300002021
:1025B00062444146B6186940721C01919446074333
:1025C0000F2F00D9B0E0554ABF00D25997465B465D
:1025D0000343994600D087E000239B460233082737
:1025E0000293CEE742460192022867D0032800D129
:1025F0000EE2012800D062E1002300240022994667
:1026000001990140CDB2002112030B0D120B1B05E5
:102610001343434A240513401C436400ED07640838
:102620002C434846210007B03CBC90469946A24640
:10263000AB46F0BD034399464FD05B46002B00D11B
:1026400089E1584600F06EFA03000B3B1C2B00DDBD
:102650007AE11D22D31A3A0001005C46DA400839BB
:102660008C4013008F4023439B46B94600232D4ED8
:102670000027361A029384E7534623432AD10024C5
:10268000022096E75346234320D0002C00D157E187
:10269000200000F047FA03000B3B1C2B00DD49E152
:1026A0001D21CB1A51460200D9405346083A9440A6
:1026B00093400C431B4A121A00207AE70125019B24
:1026C000144C1D400023002299469CE70024002260
:1026D00001206EE7534603206BE700239B4601333E
:1026E0000427002602934CE7032381460C2702931C
:1026F00047E780220023002512039946054C82E714
:102700005C464B4602986FE75C464B460195029843
:102710006AE7C046FF07000001FCFFFF0836000023
:10272000FFFF0F800DFCFFFF4A464946170C1A0CAD
:102730001B041B0C08041900000C414315008846BB
:1027400019007D43794303958946290015004543C7
:102750004D44029545462D0CAA46029D5544A94577
:1027600006D98A46802149028946CA4451460391C6
:10277000290C0491414609042D04090C88462900BE
:10278000250C24044144240C059121004143884632
:10279000210079438A466843414650448146080CEB
:1027A00048446F43824503D98021490289464F44FA
:1027B000010C894639004944029141460F040499AD
:1027C0003F0C88460004C019804441460491594694
:1027D0000F0C0904090C884659438A4639005143B5
:1027E000894641464A435146090C8B467B43D218E1
:1027F0005A44934203D980235B029B46D9445146F5
:102800000904090C8A46414661437C43130C1204B7
:102810004B445244A1468A463C0041466C434D43DA
:1028200051464D440F0C7D19A94503D98021490219
:1028300088464444049F0399B84641448B468345E7
:10284000804141428846514608042F04000C3F183D
:102850005846029910188946904292414F44BA4610
:10286000524299469346C244D144CB448F42BF4121
:10287000C245894199459B41934592417F424942D6
:102880002D0C52420F435B4213437F19FF185B46E6
:102890003C19DB0D059A64021C43430213435D1E81
:1028A000AB415A46C00D034352021343E20156D5D1
:1028B00001205A0803401343E207134364085A48AF
:1028C000604400284DDD5A0709D00F221A40042A1F
:1028D00005D01A1D9A429B415B42E4181300E201A5
:1028E00004D58020514AC00014406044504A9042B0
:1028F00000DDE3E60125DB0862071A436402019B61
:102900009146220B4405640D1D407CE68022594609
:102910001203114208D0144206D122431203120BB3
:1029200045469946434C6EE65B461A431203120B2A
:10293000404C68E603005446283B9C400023B9E61F
:1029400000F0F0F82030A6E60300283B9F4000236B
:10295000BB4699468AE600F0E5F8203074E6B446B6
:10296000ADE701252A1A382A06DD019B00241D4007
:1029700000230022994646E61F2A21DC202520005C
:10298000AD1A1E00AB40A840D6405D1EAB4130439F
:102990001843D440430709D00F230340042B05D02C
:1029A0000300181D98429B415B42E418230221D585
:1029B0000125019B01241D4000230022994622E6A7
:1029C0001F2521006D42281AC1400800202A1DD071
:1029D0005F35AA1A944023435C1EA3410725034395
:1029E0001D400022002D09D00F2200241A4018009B
:1029F000042AD6D1030065076402220BDB082B43AF
:102A000001259946019B00241D40FCE50024E2E7D6
:102A1000802201251203224301991203120B0D405B
:102A20009946044CEFE5C046FF030000FFFFFFFEA0
:102A3000FE070000FF07000030B5134D0A034B00EE
:102A4000120B5B0DC90F0024AB4210DD0F4CA342EB
:102A50000FDC80240E4D64032243ED1A1F2D0BDD85
:102A60000C48C31ADA405442002900D11400200057
:102A700030BD094BCC18FAE7084CE840A446634443
:102A80009A400243EFE7C046FE0300001D04000029
:102A90003304000013040000FFFFFF7FEDFBFFFF86
:102AA00070B5002830D0C317C4185C40C50F200093
:102AB00000F038F8174B184A1B1AD21A1F2A18DDD3
:102AC000164AD21A9440002224035B05240B5B0DA6
:102AD0000021100024030A0D240B12052243104C80
:102AE0001B05224013435B00ED075B082B431900D5
:102AF00070BD210091400A000B21081AC4405B05FB
:102B00002403240B5B0DE3E70025002300240022AF
:102B1000DEE7C0461E04000033040000130400007A
:102B2000FFFF0F801C2101231B04984201D3000CDE
:102B300010391B0A984201D3000A08391B09984230
:102B400001D30009043902A2105C40187047C04646
:102B50000403020201010101000000000000000066
:102B6000002310B59A4200D110BDCC5CC45401338F
:102B7000F8E703008218934200D1704719700133BF
:102B8000F9E7FFFF0EB410B59DB002A902900861ED
:102B90000B48822488604861012040421FABC881F5
:102BA000084804CBA400006801938C8100F08CF9E4
:102BB0000023029A13701DB010BC08BC03B0184764
:102BC000FFFFFF7F9C000020020010B51378002B50
:102BD00005D1CC5CD4540133002CFAD110BD0132A4
:102BE000F4E702780B78002A03D0013001319A42D1
:102BF000F7D0D01A7047031C0A7801311A700133DC
:102C0000002AF9D170470023C25C0133002AFBD1AE
:102C1000581E7047F7B505000F0083180193019BFC
:102C20009D4219D02C7800F0CDF80322001943788A
:102C30001340012B00D120343E7800F0C3F803226A
:102C4000801943781340012B00D12036A01B04D1FA
:102C500001350137002EE2D10020FEBD70B5040021
:102C6000002A00D170BD0D78561E631C25700131FD
:102C7000002D05D1A4189C42F4D01D700133FAE751
:102C80001C003200ECE7F0B51F000E0087B0059085
:102C9000039101920C98347800F090F80822001902
:102CA0004378751C13400CD12D2C0CD101332C789A
:102CB0000293B51C002F0CD0102F14D1302C0AD049
:102CC00011E02E00E6E702932B2CF3D12C78B51CF3
:102CD000F0E7302C2FD120222B789343582B54D15E
:102CE00010276C780235012039004042FFF7AEFA18
:102CF0000600012039004042FFF72EFB002304911B
:102D00000121012218008C46524221003039092944
:102D100013D80C00A7421EDD002B1ADB13008642DD
:102D200006D302D10499A14202DB634678432018FE
:102D30002C780135E9E70A27D5E72100413919291F
:102D400001D8373CE6E721006139192903D8573CFF
:102D5000E0E71300ECE7002B09DA22230120059AB3
:102D600040421360019B002B0BD107B0F0BD029ACB
:102D7000002A00D04042019A002AF6D0039A002B84
:102D800000D06A1E019B1A60EFE73024002FAAD101
:102D90000837A8E737B51300064A05001068046A2B
:102DA000002C00D1044C0A0000942900FFF76BFFAF
:102DB0003EBDC0469C00002000010020EC300068B1
:102DC0007047FFFF044B1B681B6A002B00D1034BAD
:102DD000EC3318687047C0469C00002000010020BA
:102DE00082B0002900D101A9101E06D0002B06D008
:102DF00013780B601078431E984102B07047022090
:102E00004042FAE7F0B58E6885B007000C000392E7
:102E100001939E4239D890238A89DB001A4234D02C
:102E20000325096923685B1A0293636902985D436D
:102E3000EB0F5D19019B6D1001331B18AB4200D9DC
:102E40001D00530532D52900380000F03DFB061E59
:102E500009D10C233B6040230120A2894042134347
:102E6000A38105B0F0BD029A2169FFF779FEA3891D
:102E7000144A1A4080231343A381029B2661F6184B
:102E800026606561019EED1AA560019BB34200D2E8
:102E90001E0032000399206800F0B9FAA3680020F0
:102EA0009B1BA36023689E192660DAE72A0038007E
:102EB00000F068FB061EE0D12169380000F0BAFA84
:102EC000C7E7C0467FFBFFFFF0B59FB002900593B8
:102ED0008B890F0016001B0611D50B69002B0ED134
:102EE000402100F0F1FA38603861002805D10C2348
:102EF000029A013813601FB0F0BD40237B610023AC
:102F000006AD6B6120336B761033AB7634002378DB
:102F1000002B47D1A31B04930DD0A31B3200390013
:102F20000298FFF76FFF431C00D1B5E06A69049B6C
:102F3000944663446B612378002B00D1ACE00122FE
:102F4000002352426A6002A95432521801342B60A5
:102F5000EB60AB601370AB65584E052221783000F2
:102F600000F04AFA621C002820D12968CB0604D55B
:102F7000532302AE20309B1918700B0704D553233E
:102F80002B2002AE9B19187023782A2B16D0002014
:102F90000A21099B2278303A092A55D9002815D0F0
:102FA000099313E0252BB5D00134B0E70123801B32
:102FB0008340296814000B432B60CDE7059B181D47
:102FC0001B680590002B39DB0993140023782E2B06
:102FD0000BD16378621C2A2B3ED1059B02341A1D4B
:102FE0001B680592002B34DB0793354E21780322B2
:102FF000300000F001FA002806D04023801B8340F7
:103000002A68013413432B60217806222D48661C60
:10301000297600F0F1F9002846D02B4B002B2FD158
:103020002968059B0722C90528D59B1893430833B7
:1030300005936B69039A9B186B6167E75B42EB60D2
:1030400002230B432B60C0E74B4301349B18012044
:10305000A0E701235B42C7E7002314000A201A00FF
:103060006B6021783039092903D9002BBDD0079234
:10307000BBE74243013452180123F2E70733D5E797
:1030800005AB00933A00114B2900029800E000BF05
:103090000390039B0133CCD1BB890B985B0600D412
:1030A00029E70120404226E705AB00933A00074B91
:1030B0002900029800F07AF8EAE7C046C63B000013
:1030C000CC3B0000D03B000000000000052E0000BB
:1030D000F7B5150001938A680B6900900C009342C4
:1030E00000DA130022002B6043321278002A01D04C
:1030F00001332B6023689B0602D52B6802332B60BB
:10310000062723681F4027D0230043331B785A1E0D
:1031100093412268920630D42200019943320098EC
:10312000089EB047431C25D0062320682A68E16822
:1031300003400025042B03D18D1AEB43DB171D4000
:10314000A3682269934201DD9B1AED180027BD4256
:1031500020D1002010E00137E3682A689B1A9F42C3
:10316000D2DA22000123193201990098089EB04753
:10317000431CF0D101204042FEBD3020E118433114
:10318000087021005A1C45310978A21843320233D5
:103190001170C1E7220001231A3201990098089E9C
:1031A000B047431CE6D00137D1E7FFFFF0B58BB045
:1031B00006920A0043320793059004920A7E0C009F
:1031C000109B6E2A00D18FE017D8632A2CD008D824
:1031D000002A00D199E0582A54D026004236327095
:1031E00029E0642A01D0692AF7D121681A68080603
:1031F00023D5111D1960156825E0732A00D188E0D8
:1032000008D86F2A29D0702AE7D1202209680A43FA
:10321000226003E0752A20D0782ADED122007821AE
:10322000453211706C4A30E00E001A684236111DAA
:10323000196013683370012379E04906D9D5111D4F
:1032400019600023D55E002D03DA2D23049A6D4208
:103250001370624B0A2703932FE020681968050654
:1032600003D5081D18600D6805E04006F9D50D6806
:10327000081D1860ADB2594B082703936F2A18D068
:103280000A2716E045310A70544A03921A682168E9
:10329000101D18601568080622D5CB0702D520231B
:1032A000194321601027002D03D1202322689A435F
:1032B00022602300002243331A706368A360002B4E
:1032C0005CDB0422216891432160002D58D1049ECB
:1032D000002B64D02600039B42361B7833705EE0DF
:1032E0004806DAD5ADB2D8E709681A68080605D5E8
:1032F000111D1960136862691A6006E04906F7D566
:10330000111D19601368A28A1A800023049E23618C
:1033100054E01A68111D19601668002162683000B7
:1033200000F06AF8002801D0801B606063682361A8
:103330000023049A137041E023693200069905982E
:10334000079DA847431C43D0236800259B070FD443
:10335000099BE06898423DDA18003BE02200012317
:10336000193206990598079EB047431C30D00135A5
:10337000E368099A9B1A9D42F0DBE9E7002DA9D08A
:10338000049E28003900FEF7E7FF039B013E5B5CCB
:10339000280033703900FEF759FF051EF1D1082FC0
:1033A00009D12368DB0706D563682269934202DCF2
:1033B0003023013E3370049B9B1B2361079B09AAAA
:1033C00000932100069B0598FFF782FE431CB3D1B2
:1033D000012040420BB0F0BDE83B0000D73B0000AD
:1033E0000B1E04D0FF2A04D98A2303608B3B1800EC
:1033F00070470A700123FAE7C9B28218904201D1DE
:103400000020704703788B42FBD00130F6E710B5FF
:10341000884202D98B18984208D300239A4207D0D9
:10342000CC5CC4540133F9E78B5C8354013AFBD282
:1034300010BDFFFF70B50500002910D00C1F2368D8
:10344000002B00DAE418280000F0D4F81D4A1368B5
:10345000002B05D163601460280000F0CCF870BD2B
:10346000A34209D9216860188342F3D118685B68C8
:1034700041182160EEE713005A68002A01D0A242E9
:10348000F9D919685818A0420BD1206809185818A2
:1034900019608242E0D110685268411819605A6080
:1034A000DAE7A04202D90C232B60D5E72168601827
:1034B000824203D1106852684118216062605C60EA
:1034C000CAE7C046BC020020032370B5CD1C9D4353
:1034D000083506000C2D1ED20C25A9421DD830003F
:1034E00000F088F8254A14682100002919D1244CDD
:1034F0002368002B03D1300000F06AF82060290017
:10350000300000F065F8431C2CD10C2330003360F0
:1035100000F071F803E0002DDFDA0C2333600020A7
:1035200070BD0B685B1B1AD40B2B03D90B60CC1836
:10353000256003E08C420ED163681360300000F018
:103540005AF8200007220B30231D9043C31AE7D0FE
:103550005A42E250E4E74B6863600C00EEE70C006F
:103560004968C2E70323C41C9C43A042E0D0211A4F
:10357000300000F02DF8431CDAD1C6E7BC02002071
:10358000C0020020F8B507000D001600002905D183
:103590001100FFF799FF04002000F8BD002A03D1B5
:1035A000FFF748FF3400F7E700F026F82C008642CA
:1035B000F2D931003800FFF787FF041EECD0290054
:1035C0003200FFF7CDFA29003800FFF733FFE3E7B9
:1035D000002370B5064C050008002360FDF7B8FB1A
:1035E000431C03D12368002B00D02B6070BDC04664
:1035F00058040020704770470B1F1B68181F002BD2
:1036000001DA0B58C018704728270000E825000091
:10361000E8250000E4250000002700000027000046
:10362000F2260000E425000000270000F22600003A
:1036300000270000E42500000827000008270000FC
:10364000082700000C2900003E3E3E20626F6433D4
:10365000335F7472697020534C45455021203C3CC7
:103660003C0A0D003E3E3E20626F643333206F6B98
:103670002077616B657570203C3C3C0A0D006565E8
:1036800070726F6D20656D7074793A206D6F73661E
:103690006574206F66660A0D00656570726F6D2037
:1036A0006F6B3A20726561642076616C756573009A
:1036B00028646179733D25642920287365713D254F
:1036C00064290A0D0066726565206D6F64652C20A3
:1036D0006E6F20616C61726D3A206D6F73666574F8
:1036E000206F6E0A0D00616C7265616479206578E7
:1036F00070697265642C206D6F73666574206F66E7
:10370000660A0D00656E61626C6520616C61726DA8
:103710002C206D6F73666574206F6E0A0D006164F6
:103720006420746F206E6F770A0D006164642074EA
:103730006F20616C61726D0A0D002A3123002A32FC
:1037400023002A3523002A313023002A3131230077
:103750002A313223002A3323002A342300456E7491
:103760006572206E65772063726564697420746F7A
:1037700020777269746520666C617368210A0D0098
:103780003132333435363738390039383736353415
:103790003332310020636F64653D256C752028301D
:1037A00078256C78293A005B73657474696E6720BC
:1037B000616C61726D5D005B777269746520666C27
:1037C0006173685D00205B7365713D2564206461F1
:1037D00079733D25642069643D256C645D005B69F7
:1037E00064206D617463685D005B64697361626C21
:1037F0006520616C61726D5D005B616C7265616416
:103800007920757365645D005B6964206E6F742058
:103810006D617463685D005B6465636F64652065FA
:1038200072726F725D00416C61726D21206D6F73F9
:10383000666574204F4646210A0D005B77726974F5
:103840006520666C6173685D0D0A000A0D253039CC
:103850006C640A0D00686F7572730064617973009F
:103860000A0D20202020202059592D4D4D2D444453
:103870002068683A6D6D0A0D002074696D653A25FF
:103880003032642D253032642D25303264202530CD
:1038900032643A253032640A0D00616C61726D3A0F
:1038A000253032642D253032642D253032642025B8
:1038B0003032643A253032640A0D006372656469FF
:1038C000743D2564202573206C6566740A0D004BD9
:1038D000616D776F726B7320436F64657377697482
:1038E00063680A0D56657273696F6E3D25642E25F7
:1038F0003032640A0D005243415553453D3078251E
:10390000780A0D0054455354494E470A0D000A0DDC
:103910004368697049443A00FFFFFFFFFFFFFFFF64
:10392000FFFFFFFFFFFFFFFFFFFFFFFFFFFFFFFFA7
:10393000FFFFFFFFFFFFFFFFFFFFFFFFFFFFFFFF97
:10394000FFFFFFFFFFFFFFFFFFFFFFFFFFFFFFFF87
:10395000FFFFFFFFFFFFFFFFFFFFFFFFFFFFFFFF77
:10396000FFFFFFFFFFFFFFFFFFFFFFFFFFFFFFFF67
:10397000FFFFFFFFFFFFFFFFFFFFFFFFFFFFFFFF57
:10398000FFFFFFFFFFFFFFFFFFFFFFFFFFFFFFFF47
:10399000FFFFFFFFFFFFFFFFFFFFFFFFFFFFFFFF37
:1039A000FFFFFFFFFFFFFFFFFFFFFFFFFFFFFFFF27
:1039B000FFFFFFFFFFFFFFFFFFFFFFFFFFFFFFFF17
:1039C000FFFFFFFFFFFFFFFFFFFFFFFFFFFFFFFF07
:1039D000FFFFFFFFFFFFFFFFFFFFFFFFFFFFFFFFF7
:1039E000FFFFFFFFFFFFFFFFFFFFFFFFFFFFFFFFE7
:1039F000FFFFFFFFFFFFFFFFFFFFFFFFFFFFFFFFD7
:103A000000000000000000000000000000000000B6
:103A100000000000000000000000000000000000A6
:103A20000000000000000000000000000000000096
:103A30000000000000000000000000000000000086
:103A40000000000000000000000000000000000076
:103A50000000000000000000000000000000000066
:103A60000000000000000000000000000000000056
:103A70000000000000000000000000000000000046
:103A80000000000000000000000000000000000036
:103A90000000000000000000000000000000000026
:103AA0000000000000000000000000000000000016
:103AB0000000000000000000000000000000000006
:103AC00000000000000000000000000000000000F6
:103AD00000000000000000000000000000000000E6
:103AE00000000000000000000000000000000000D6
:103AF00000000000000000000000000000000000C6
:103B0000080000001000000020000000400000003D
:103B1000800000000001000000020000000400001E
:103B20007D306E7A335B5F707F7B00786F037657F2
:103B30001B5D7D077F5F0044000100010002000360
:103B40000004000000050000000600000007010757
:103B500002060400090805032356455D633F4A0F2A
:103B60005458521A322B3A37614734600D43381497
:103B70001B2E0913492601024D4005390319151F53
:103B80003D10084B185C4E1E21060A2C4853355F29
:103B9000310B122A281C4C11000E0C502F57446276
:103BA000203327513E222D365524042529425B46D9
:103BB000593C4F5E1D5A160741303B174300504F8A
:103BC000534958002E00232D302B2000686C4C00E8
:103BD000656667454647003031323334353637380D
:103BE000394142434445460030313233343536376B
:103BF000383961626364656600002020202020203F
:103C0000202020282828282820202020202020208C
:103C1000202020202020202020208810101010108C
:103C200010101010101010101010040404040404DC
:103C300004040404101010101010104141414141BF
:103C40004101010101010101010101010101010124
:103C500001010101011010101010104242424242B5
:103C600042020202020202020202020202020202F4
:103C700002020202021010101020000000000000DA
:103C80000000000000000000000000000000000034
:103C90000000000000000000000000000000000024
:103CA0000000000000000000000000000000000014
:103CB0000000000000000000000000000000000004
:103CC00000000000000000000000000000000000F4
:103CD00000000000000000000000000000000000E4
:103CE00000000000000000000000000000000000D4
:0C3CF00000000000000000000000FFFFCA
:043CFC00F8B5C04611
:043D0000F8B5C0460C
:103D04000203043132333435363738392A30231933
:103D1400070506FF1704000008000000B8010000B2
:103D2400020000001003000004000000BA020000BA
:103D34000400000093020000040000004B02000095
:103D4400040000000B02000004000000EE0100006B
:103D540004000000B8010000020000008801000017
:103D64000100000010030000080000001003000020
:103D740008000000700300000400000010030000AD
:103D8400040000000000000004000000DC03000048
:103D9400040000001704000004000000A00000203C
:103DA400000000000000000000000000000000000F
:103DB40000000000000000000000000000000000FF
:103DC40000000000000000000000000000000000EF
:103DD40000000000000000000000000000000000DF
:103DE40000000000000000000000000000000000CF
:103DF40000000000000000000000000000000000BF
:103E0400430000000000000000000000000000006B
:103E1400000000000000000000000000000000009E
:103E2400430000000000000000000000000000004B
:103E3400000000000000000000000000000000007E
:103E4400430000000000000000000000000000002B
:103E5400000000000000000000000000000000005E
:103E6400430000000000000000000000000000000B
:103E7400000000000000000000000000000000003E
:103E840043000000000000000000000000000000EB
:103E9400000000000000000000000000000000001E
:103EA40043000000000000000000000000000000CB
:103EB40000000000000000000000000000000000FE
:103EC40043000000000000000000000000000000AB
:103ED40000000000000000000000000000000000DE
:103EE400E1330000E12D000000000000F93B000078
:103EF400C43B00004A3800004A3800004A38000039
:103F04004A3800004A3800004A3800004A380000A5
:103F14004A3800004A380000FFFFFFFFFFFFFFFFA1
:103F2400FFFFFFFFFFFF0000010041534349490029
:103F3400000000000000000000000000000000007D
:103F44000000000000000000000041534349490004
:103F5400000000000000000000000000000000005D
:0C3F640000000000000000000000000051
:040000030000009168
:00000001FF
